:100000000C942A000C949C010C9447000C9447001B
:100010000C9447000C9447000C9447000C94470044
:100020000C9447000C9447000C9447000C94470034
:100030000C9447000C9447000C9447000C94470024
:100040000C9447000C9447000C9447000C94470014
:100050000C94470011241FBECFE5D8E0DEBFCDBF12
:1000600010E0A0E6B0E0ECE9FAE002C005900D92E5
:10007000A236B107D9F720E0A2E6B0E001C01D9298
:10008000A436B207E1F70E94A8010C944C050C9429
:10009000000060E081E40E94230361E081E40E94AB
:1000A000230362E081E40E94230360E082E40E9473
:1000B000230361E082E40E94230362E082E40E9461
:1000C000230362E084E40E941F030E949D0278944F
:1000D00085B7836085BF8BB780648BBF0895CF934E
:1000E00080916000882309F46DC0813009F022C13D
:1000F00062E082E40E942B0360E082E40E942B0312
:1001000061E082E40E942B0360E081E40E94270307
:1001100080916000811104C081E0809362000AC177
:1001200088E893E10E949F0280916000811104C0E1
:1001300081E080936200FEC060E081E40E942B03B6
:1001400080916000811116C081E080936200F2C04E
:1001500061E081E40E94270384EF91E00E949F0206
:1001600061E081E40E942B0384EF91E00E949F02F2
:10017000CF5F01C0C0E0C53058F3809160008111AD
:1001800004C081E080936200D5C062E081E40E94F7
:10019000270380916000811104C081E08093630097
:1001A000C9C088E893E10E949F028091600081119C
:1001B00004C081E080936300BDC062E081E40E94DE
:1001C0002B03B8C080916300813009F043C062E026
:1001D00081E40E94270360E082E40E94270388E80C
:1001E00093E10E949F0262E081E40E942B03C0E041
:1001F00019C061E081E40E94270361E082E40E946B
:10020000270384EF91E00E949F0261E081E40E9455
:100210002B0361E082E40E942B0384EF91E00E94B3
:100220009F02CF5FC53028F360E082E40E942B0379
:1002300060E081E40E94270362E082E40E942703D9
:1002400088EE93E00E949F0281E08093600010920C
:10025000630070C080916200813009F06BC062E081
:1002600082E40E942703C0E019C061E081E40E949B
:10027000270361E082E40E94270384EF91E00E945B
:100280009F0261E081E40E942B0361E082E40E940E
:100290002B0384EF91E00E949F02CF5FC53028F3CB
:1002A00062E082E40E942B0360E081E40E942B0361
:1002B00060E082E40E94270362E081E40E94270359
:1002C00088E893E10E949F0262E081E40E942B0390
:1002D000C0E019C061E081E40E94270361E082E48C
:1002E0000E94270384EF91E00E949F0261E081E475
:1002F0000E942B0361E082E40E942B0384EF91E0D3
:100300000E949F02CF5FC53028F360E082E40E9424
:100310002B0360E081E40E94270362E082E40E94F4
:10032000270388EE93E00E949F0281E080936000A3
:1003300010926200CF9108951F920F920FB60F9204
:100340001124109260000F900FBE0F901F9018950F
:100350000E9449000E946F00FDCF823429F118F4F9
:10036000813439F008958334D1F1843409F452C0D2
:100370000895413059F42AB381E090E002C0880F1B
:10038000991F6A95E2F7822B8ABB089541115CC0E0
:100390002AB381E090E002C0880F991F6A95E2F7C6
:1003A000809582238ABB0895413059F427B381E0B8
:1003B00090E002C0880F991F6A95E2F7822B87BBF5
:1003C0000895411141C027B381E090E002C0880F39
:1003D000991F6A95E2F78095822387BB0895413083
:1003E00059F424B381E090E002C0880F991F6A9508
:1003F000E2F7822B84BB0895411126C024B381E02B
:1004000090E002C0880F991F6A95E2F780958223D9
:1004100084BB0895413059F421B381E090E002C0DB
:10042000880F991F6A95E2F7822B81BB08954111CD
:100430000BC021B381E090E002C0880F991F6A953C
:10044000E2F78095822381BB0895823429F118F464
:10045000813439F008958334D1F1843409F452C0E1
:100460000895413059F42BB381E090E002C0880F29
:10047000991F6A95E2F7822B8BBB089541115CC0EE
:100480002BB381E090E002C0880F991F6A95E2F7D4
:10049000809582238BBB0895413059F428B381E0C5
:1004A00090E002C0880F991F6A95E2F7822B88BB03
:1004B0000895411141C028B381E090E002C0880F47
:1004C000991F6A95E2F78095822388BB0895413091
:1004D00059F425B381E090E002C0880F991F6A9516
:1004E000E2F7822B85BB0895411126C025B381E038
:1004F00090E002C0880F991F6A95E2F780958223E9
:1005000085BB0895413059F422B381E090E002C0E8
:10051000880F991F6A95E2F7822B82BB08954111DB
:100520000BC022B381E090E002C0880F991F6A954A
:10053000E2F78095822382BB089513BE08958F92BF
:100540009F92AF92BF92CF92DF92EF92FF92CF93A2
:10055000DF93EC01BC0180E090E00E9459046B0144
:100560007C012FE632E143E852E40E94B303882382
:100570009CF4A70196016FE672E183E892E40E9481
:100580002F032FE632E143E85EE30E94B8030E94A6
:100590002A04C1E0D0E035C0C134D10579F12FE69D
:1005A00032E143E852E4C701B6010E94B8030E9459
:1005B0009C030E942A044B015C01EB012FE632E10F
:1005C00043E85EE3C701B6010E94B8036B017C01FA
:1005D000B40180E090E00E9459049B01AC01C70186
:1005E000B6010E94B8039B01AC0160E070E080E8B6
:1005F00093E40E942F030E942A0403C060E0C1E03C
:10060000D0E062BF83B7846083BF20E030E008C0E1
:1006100008B600FEFDCF88B7816088BF2F5F3F4FCF
:100620002C173D07A8F313BEDF91CF91FF90EF90F9
:10063000DF90CF90BF90AF909F908F90089540E053
:100640000E94AD01089541E00E94AD01089541E08E
:100650000E942502089540E00E9425020895505806
:10066000BB27AA270E9447030C94FA040E94EC04BB
:1006700038F00E94F30420F039F49F3F19F426F477
:100680000C94E9040EF4E095E7FB0C94BA04E92F0E
:100690000E940B0558F3BA17620773078407950782
:1006A00020F079F4A6F50C9445050EF4E0950B2E98
:1006B000BA2FA02D0B01B90190010C01CA01A001B4
:1006C0001124FF27591B99F0593F50F4503E68F10F
:1006D0001A16F040A22F232F342F4427585FF3CF50
:1006E000469537952795A795F0405395C9F77EF421
:1006F0001F16BA0B620B730B840BBAF09150A1F06A
:10070000FF0FBB1F661F771F881FC2F70EC0BA0FEF
:10071000621F731F841F48F4879577956795B79577
:10072000F7959E3F08F0B0CF9395880F08F0992772
:10073000EE0F9795879508950E942D0590F09F37AD
:1007400048F4911116F40C94460560E070E080E8DE
:100750009FE3089526F01B16611D711D811D0C94E9
:10076000C0040C94DB040E94960408F481E0089510
:100770000E94CC030C94FA040E94F30458F00E94E7
:10078000EC0440F029F45F3F29F00C94BA045111B5
:100790000C9446050C94E9040E940B0568F3992318
:1007A000B1F3552391F3951B550BBB27AA2762176D
:1007B0007307840738F09F5F5F4F220F331F441F7A
:1007C000AA1FA9F335D00E2E3AF0E0E832D09150AE
:1007D0005040E695001CCAF72BD0FE2F29D0660F9B
:1007E000771F881FBB1F261737074807AB07B0E8DE
:1007F00009F0BB0B802DBF01FF2793585F4F3AF0E4
:100800009E3F510578F00C94BA040C9446055F3F66
:10081000E4F3983ED4F3869577956795B795F79569
:100820009F5FC9F7880F911D9695879597F9089551
:10083000E1E0660F771F881FBB1F621773078407ED
:10084000BA0720F0621B730B840BBA0BEE1F88F7FC
:10085000E09508950E94130588F09F5798F0B92FEE
:100860009927B751B0F0E1F0660F771F881F991FE5
:100870001AF0BA95C9F714C0B13091F00E9445053D
:10088000B1E008950C944505672F782F8827B85F4D
:1008900039F0B93FCCF3869577956795B395D9F73D
:1008A0003EF490958095709561957F4F8F4F9F4F47
:1008B0000895E89409C097FB3EF490958095709553
:1008C00061957F4F8F4F9F4F9923A9F0F92F96E99C
:1008D000BB279395F695879577956795B795F11111
:1008E000F8CFFAF4BB0F11F460FF1BC06F5F7F4FAE
:1008F0008F4F9F4F16C0882311F096E911C07723C0
:1009000021F09EE8872F762F05C0662371F096E8C8
:10091000862F70E060E02AF09A95660F771F881F97
:10092000DAF7880F9695879597F90895990F00083B
:10093000550FAA0BE0E8FEEF16161706E807F907B1
:10094000C0F012161306E407F50798F0621B730B4C
:10095000840B950B39F40A2661F0232B242B252BCD
:1009600021F408950A2609F4A140A6958FEF811D70
:10097000811D089597F99F6780E870E060E0089511
:10098000882371F4772321F09850872B762F07C0A6
:10099000662311F499270DC09051862B70E060E01A
:1009A0002AF09A95660F771F881FDAF7880F9695B9
:1009B000879597F908959F3F31F0915020F48795DE
:1009C00077956795B795880F911D9695879597F9B7
:1009D00008959FEF80EC089500240A9416161706D8
:1009E00018060906089500240A9412161306140620
:1009F00005060895092E0394000C11F4882352F083
:100A0000BB0F40F4BF2B11F460FF04C06F5F7F4F3A
:100A10008F4F9F4F089557FD9058440F551F59F021
:100A20005F3F71F04795880F97FB991F61F09F3FDB
:100A300079F087950895121613061406551FF2CF04
:100A40004695F1DF08C0161617061806991FF1CF54
:100A5000869571056105089408950E941305A0F01C
:100A6000BEE7B91788F4BB279F3860F41616B11D8E
:100A7000672F782F8827985FF7CF869577956795AA
:100A8000B11D93959639C8F30895E894BB2766275E
:0C0A90007727CB0197F90895F894FFCF69
:020A9C00010057
:00000001FF
